{
  "contractName": "EnecoTokenSale",
  "abi": [
    {
      "inputs": [
        {
          "internalType": "contract EnecoToken",
          "name": "_tokenContract",
          "type": "address"
        },
        {
          "internalType": "uint256",
          "name": "_tokenPrice",
          "type": "uint256"
        }
      ],
      "payable": false,
      "stateMutability": "nonpayable",
      "type": "constructor"
    },
    {
      "anonymous": false,
      "inputs": [
        {
          "indexed": false,
          "internalType": "address",
          "name": "_buyer",
          "type": "address"
        },
        {
          "indexed": false,
          "internalType": "uint256",
          "name": "_amount",
          "type": "uint256"
        }
      ],
      "name": "Sell",
      "type": "event"
    },
    {
      "constant": true,
      "inputs": [],
      "name": "tokenContract",
      "outputs": [
        {
          "internalType": "contract EnecoToken",
          "name": "",
          "type": "address"
        }
      ],
      "payable": false,
      "stateMutability": "view",
      "type": "function"
    },
    {
      "constant": true,
      "inputs": [],
      "name": "tokenPrice",
      "outputs": [
        {
          "internalType": "uint256",
          "name": "",
          "type": "uint256"
        }
      ],
      "payable": false,
      "stateMutability": "view",
      "type": "function"
    },
    {
      "constant": true,
      "inputs": [],
      "name": "tokensSold",
      "outputs": [
        {
          "internalType": "uint256",
          "name": "",
          "type": "uint256"
        }
      ],
      "payable": false,
      "stateMutability": "view",
      "type": "function"
    },
    {
      "constant": false,
      "inputs": [
        {
          "internalType": "uint256",
          "name": "_numberOfTokens",
          "type": "uint256"
        }
      ],
      "name": "buyTokens",
      "outputs": [],
      "payable": true,
      "stateMutability": "payable",
      "type": "function"
    }
  ],
  "bytecode": "0x608060405234801561001057600080fd5b506040516106ab3803806106ab8339818101604052604081101561003357600080fd5b810190808051906020019092919080519060200190929190505050336000806101000a81548173ffffffffffffffffffffffffffffffffffffffff021916908373ffffffffffffffffffffffffffffffffffffffff16021790555081600160006101000a81548173ffffffffffffffffffffffffffffffffffffffff021916908373ffffffffffffffffffffffffffffffffffffffff1602179055508060028190555050506105c4806100e76000396000f3fe60806040526004361061003f5760003560e01c80633610724e14610044578063518ab2a81461007257806355a373d61461009d5780637ff9b596146100f4575b600080fd5b6100706004803603602081101561005a57600080fd5b810190808035906020019092919050505061011f565b005b34801561007e57600080fd5b506100876104a5565b6040518082815260200191505060405180910390f35b3480156100a957600080fd5b506100b26104ab565b604051808273ffffffffffffffffffffffffffffffffffffffff1673ffffffffffffffffffffffffffffffffffffffff16815260200191505060405180910390f35b34801561010057600080fd5b506101096104d1565b6040518082815260200191505060405180910390f35b61012b816002546104d7565b341461019f576040517f08c379a00000000000000000000000000000000000000000000000000000000081526004018080602001828103825260118152602001807f56616c756573206d75737420657175616c00000000000000000000000000000081525060200191505060405180910390fd5b80600160009054906101000a900473ffffffffffffffffffffffffffffffffffffffff1673ffffffffffffffffffffffffffffffffffffffff166370a08231306040518263ffffffff1660e01b8152600401808273ffffffffffffffffffffffffffffffffffffffff1673ffffffffffffffffffffffffffffffffffffffff16815260200191505060206040518083038186803b15801561023f57600080fd5b505afa158015610253573d6000803e3d6000fd5b505050506040513d602081101561026957600080fd5b810190808051906020019092919050505010156102d1576040517f08c379a000000000000000000000000000000000000000000000000000000000815260040180806020018281038252602381526020018061056d6023913960400191505060405180910390fd5b600160009054906101000a900473ffffffffffffffffffffffffffffffffffffffff1673ffffffffffffffffffffffffffffffffffffffff1663a9059cbb33836040518363ffffffff1660e01b8152600401808373ffffffffffffffffffffffffffffffffffffffff1673ffffffffffffffffffffffffffffffffffffffff16815260200182815260200192505050602060405180830381600087803b15801561037a57600080fd5b505af115801561038e573d6000803e3d6000fd5b505050506040513d60208110156103a457600080fd5b8101908080519060200190929190505050610427576040517f08c379a00000000000000000000000000000000000000000000000000000000081526004018080602001828103825260198152602001807f5472616e736665722069736e2774207375636365737366756c0000000000000081525060200191505060405180910390fd5b806003600082825401925050819055507f5e5e995ce3133561afceaa51a9a154d5db228cd7525d34df5185582c18d3df093382604051808373ffffffffffffffffffffffffffffffffffffffff1673ffffffffffffffffffffffffffffffffffffffff1681526020018281526020019250505060405180910390a150565b60035481565b600160009054906101000a900473ffffffffffffffffffffffffffffffffffffffff1681565b60025481565b6000808214806104f457508282838502925082816104f157fe5b04145b610566576040517f08c379a00000000000000000000000000000000000000000000000000000000081526004018080602001828103825260128152602001807f496e76616c6964204f7065726174696f6e73000000000000000000000000000081525060200191505060405180910390fd5b9291505056fe436f6e747261637420646f65736e2774206861766520656e6f75676820746f6b656e73a265627a7a723158204db1730a68c27a1233d4560dde0b5eaa130b585cfd77e354c8fc1c41524e709b64736f6c63430005100032",
  "source": "pragma solidity >=0.4.17 < 0.7.0;\r\n\r\nimport \"./EnecoToken.sol\";\r\n\r\ncontract EnecoTokenSale\r\n{\r\n    address admin;\r\n    EnecoToken public tokenContract;\r\n    uint256 public tokenPrice;\r\n    uint256 public tokensSold;\r\n\r\n    event Sell(address _buyer, uint256 _amount);\r\n\r\n    constructor(EnecoToken _tokenContract, uint256 _tokenPrice) public\r\n    {\r\n        // Assign an admin\r\n        admin = msg.sender;\r\n        // Token Contract\r\n        tokenContract = _tokenContract;\r\n        // Token Price\r\n        tokenPrice = _tokenPrice;\r\n    }\r\n\r\n    // Multiply\r\n    function multiply(uint x, uint y) internal pure returns (uint z)\r\n    {\r\n        require(y == 0 || (z = x * y) / y == x, 'Invalid Operations');\r\n    }\r\n\r\n    // Buy Tokens\r\n    function buyTokens(uint256 _numberOfTokens) public payable\r\n    {\r\n        // Require that value is equal to tokens\r\n        require(msg.value == multiply(_numberOfTokens, tokenPrice), \"Values must equal\");\r\n        // Require that contract has enough tokens\r\n        require(tokenContract.balanceOf(address(this)) >= _numberOfTokens, \"Contract doesn't have enough tokens\");\r\n        // Require that transfer is successful\r\n        require(tokenContract.transfer(msg.sender, _numberOfTokens), \"Transfer isn't successful\");\r\n\r\n        // Keep track of number of tokens sold\r\n        tokensSold += _numberOfTokens;\r\n        // Trigger Sell Event\r\n        emit Sell(msg.sender, _numberOfTokens);\r\n    }\r\n}",
  "sourcePath": "/mnt/c/Users/ricky/Desktop/Computer Science/Personal Projects/Ethereum-Cleanergy/contracts/EnecoTokenSale.sol",
  "compiler": {
    "name": "solc",
    "version": "0.5.16+commit.9c3226ce.Emscripten.clang"
  },
  "schemaVersion": "3.0.23",
  "updatedAt": "2020-03-30T07:13:18.250Z",
  "networkType": "ethereum",
  "devdoc": {
    "methods": {}
  },
  "userdoc": {
    "methods": {}
  }
}